:020000040800F2
:100000007020002019260008490F00084B0F000837
:100010004F0F0008530F0008570F000800000000A2
:100020000000000000000000000000005B0F00085E
:100030005D0F0008000000005F0F0008610F00085E
:10004000332600083326000833260008332600082C
:10005000332600083326000833260008332600081C
:10006000332600083326000833260008332600080C
:1000700033260008332600083326000833260008FC
:1000800033260008332600083326000833260008EC
:1000900033260008332600083326000833260008DC
:1000A00033260008332600083326000833260008CC
:1000B0004D040008332600083326000833260008C4
:1000C00033260008332600083326000833260008AC
:1000D00033260008C125000841190008332600080E
:1000E00033260008332600083326000800F002F803
:1000F00000F070F80AA090E8000C82448344AAF152
:100100000107DA4501D100F065F8AFF2090EBAE84F
:100110000F0013F0010F18BFFB1A43F0010318473B
:10012000D8810000F88100000A444FF0000C10F85C
:10013000013B13F0070408BF10F8014B1D1108BF65
:1001400010F8015B641E05D010F8016B641E01F805
:10015000016BF9D113F0080F1EBF10F8014BAD1C55
:100160000C1B09D16D1E58BF01F801CBFAD505E073
:1001700014F8016B01F8016B6D1EF9D59142D6D3CD
:10018000704700000023002400250026103A28BFF5
:1001900078C1FBD8520728BF30C148BF0B607047F9
:1001A000662906F07484642904F09E81002070475B
:1001B0001FB504F015FE04000020002105F048FDE5
:1001C000401C60600020002105F02CFDE0601FBD98
:1001D00010B510BD05F0CAF81146FFF7E9FF00F0B1
:1001E00056FD05F0F1F803B4FFF7F2FF03BC02F08F
:1001F0007BF90000024641EA0220704708B5002161
:10020000FC4803F073FE0220ADF8000010208DF8CA
:10021000030003208DF802006946F74802F0EAFA6D
:100220000221F54802F095FB08BD08B50220ADF8A3
:10023000000018208DF8030003208DF802006946A5
:10024000ED4802F0D7FA0121EA4803F04FFE08BD5D
:100250002DE9F041E948006806F054FA0446E84800
:100260000168204606F062FA02D80020E5490860DD
:10027000E548006806F046FA0446E1480168204671
:1002800006F054FB03D8E148DE4908601BE0DB4977
:100290000968DD4A1268881A06F034FA0646D7481B
:1002A000006806F02FFA0746D5480168384606F080
:1002B00079FB0546D54906F06DFA0446314606F04D
:1002C00043F9D0490860D248006806F01BFA04469A
:1002D000D0480168204606F029FA02D80020CE490D
:1002E0000860CE48006806F00DFA0446C948016867
:1002F000204606F01BFB03D8C448C74908601BE032
:10030000C3490968C54A1268881A06F0FBF906460F
:10031000BF48006806F0F6F90746BE48016838464F
:1003200006F040FB0546B94906F034FA044631466A
:1003300006F00AF9B8490860B9480088062822D1B1
:10034000B848007801280CD10020B7490860012086
:10035000B64908600121A74803F0C8FDFFF765FF13
:1003600011E0B048007870B90120AF490860002062
:10037000AE49086000219F4803F0B8FD0020AC4959
:100380000860FFF73BFFA6480088062822D0A9484E
:100390000168A948006806F0C9F908D20020A249FE
:1003A00008600121934803F0A1FDFFF73EFFA1483B
:1003B0000168A148006806F0B9FA0BD801209A49F3
:1003C000086000218B4803F091FD002098490860E7
:1003D000FFF714FFBDE8F0811FB54FF4E06002F0B5
:1003E0003BF91C208DF80C0001208DF80F00002037
:1003F0008DF80D008DF80E0003A802F032F90121EE
:10040000084602F0C0FC4FF0804003F03FF90020A6
:10041000ADF80600ADF802004FF47A70ADF80400B4
:100420002320ADF8000069464FF0804003F002FA47
:100430000121880704F020F801221146900703F0FB
:1004400070FD0121880703F051FD1FBD2DE9F04F1C
:100450008DB00121880704F012F800287DD077487C
:100460000088401C7549088008460088C8280BDBB6
:10047000012000F0D8FE6E48008881B25D4803F08C
:10048000D3FF00206D4908806D480088401C6C49EE
:10049000088008460088B0F5FA6F12DB012001F0F1
:1004A0009FFB044606F02EF95A490860042001F02B
:1004B00097FB044606F026F9514908600020604980
:1004C000088060480088401C5E4908800846008813
:1004D00041F27071884202DB00205A4908805A4874
:1004E0000088401C584908800846008842F6E061B0
:1004F000884202DB00205449088054480088401C90
:10050000524908800846008844F62061884232DB60
:100510004148006805F07EFF04460D4639480068F2
:1005200005F078FF06460F464348006805F072FF65
:10053000804689464648006805F06CFF82468B4637
:100540004448006805F066FFCDE90A0135480078A7
:10055000CDE900ABCDE9028900E010E0CDE9046708
:10056000CDE9064508903CA0DDE90A2303F09CFF95
:100570000020364908800121880703F091FF0DB063
:10058000BDE8F08F10B5444801683148006806F0B6
:10059000CDF806D3414801682D48006806F0C6F939
:1005A00003D201203E490860A9E0224801682248A0
:1005B000006806F0BBF806D33A4801681E48006898
:1005C00006F0B4F903D201203549086097E03648B7
:1005D00001682048006806F0A9F806D3334801688E
:1005E0001C48006806F0A2F962D201202C4908607C
:1005F00085E05DE000040040000C01405400002054
:100600001000002014000020580000200000C84204
:100610005C0000200C00002018000020600000207A
:100620004C000020480000206400002068000020EA
:10063000440000203400002004000020700000204E
:100640007200002074000020760000207800002056
:10065000000000200800002050483D25302E326662
:100660002C54656D3D25302E32662C48756D3D2528
:10067000302E32662C4C696768743D25302E326608
:100680002C4C6576656C3D25302E32662C50756D90
:10069000703D25640A000000300000201C0000208E
:1006A000C001224220000020380000202400002049
:1006B000FE480168FE48006806F038F806D3FD4899
:1006C0000168FB48006806F031F903D20120FA49BD
:1006D000086014E0F9480168F948006806F026F857
:1006E00006D3F8480168F648006806F01FF903D2FF
:1006F0000120F149086002E00020EF49086010BDC8
:1007000070B5F1480088002836D101F004FBEF48AD
:10071000006805F07FFE044622460B46ECA1EF4838
:1007200003F0CEFEEE48006805F074FE0446224653
:100730000B46ECA1EE4803F0C3FEEE48006805F05E
:1007400069FE044622460B46EBA1EF4803F0B8FED3
:100750001023E24A0021084601F015FC1023E44A68
:100760001721002001F00FFC1023E74A2B21002065
:1007700001F009FC01F00FFBD3480088012836D1B5
:1007800001F0C9FAD148006805F044FE044622464B
:100790000B46DEA1D14803F093FEE048006805F067
:1007A00039FE044622460B46DDA1D14803F088FEFF
:1007B000DF48006805F02EFE044622460B46DDA108
:1007C000D14803F07DFE1023C44A0021084601F001
:1007D000DAFB1023C64A1721002001F0D4FB1023B6
:1007E000C94A2B21002001F0CEFB01F0D4FAB64813
:1007F0000088022837D1012001F08DFAB84800683E
:1008000005F008FE044622460B46CEA1B34803F08D
:1008100057FED048006805F0FDFD044622460B4611
:10082000CDA1B34803F04CFECF48006805F0F2FDBF
:10083000044622460B46CDA1B34803F041FE1023E7
:10084000A64A0021084601F09EFB1023A84A172162
:10085000002001F098FB1023AB4A2B21002001F06F
:1008600092FB01F098FA98480088032837D10120BC
:1008700001F051FA9F48006805F0CCFD044622467D
:100880000B46BEA1954803F01BFEC048006805F06A
:10089000C1FD044622460B46BDA1954803F010FE5B
:1008A000BF48006805F0B6FD044622460B46BDA1D0
:1008B000954803F005FE1023884A0021084601F000
:1008C00062FB10238A4A1721002001F05CFB1023F1
:1008D0008D4A2B21002001F056FB01F05CFA7A488A
:1008E0000088042837D1012001F015FA704800680B
:1008F00005F090FD044622460B46AEA1774803F072
:10090000DFFD6C48006805F085FD044622460B4675
:10091000ACA1774803F0D4FD6448006805F07AFD87
:10092000044622460B46ACA1774803F0C9FD1023CC
:100930006A4A0021084601F026FB10236C4A172161
:10094000002001F020FB10236F4A2B21002001F032
:100950001AFB01F020FA5C480088052837D10120F5
:1009600001F0D9F95648006805F054FD04462246C6
:100970000B469EA1594803F0A3FD5248006805F0BC
:1009800049FD044622460B469CA1594803F098FDB8
:100990004A48006805F03EFD044622460B469CA1ED
:1009A000594803F08DFD10234C4A0021084601F000
:1009B000EAFA10234E4A1721002001F0E4FA10232E
:1009C000514A2B21002001F0DEFA01F0E4F93E4803
:1009D000008806281FD1012001F09DF991A13F4810
:1009E00003F06EFD4348006805F014FD04462246FE
:1009F0000B4662A13E4803F063FD1023374A0021F5
:100A0000084601F0C0FA1023394A1721002001F0EE
:100A1000BAFA01F0C0F970BD70B58548006888B9B0
:100A200084493448006805F0B5FE0646824905F061
:100A30008BFD0546814905F0AAFF044605F046FEF8
:100A40007F4908607A480068012802D100207C496B
:100A5000086070BD00B589B00121082002F086F958
:100A60000121022002F08FF90320ADF820001820A8
:100A70008DF8230003208DF8220008A9714801F0A9
:100A8000B9FE40F2E730ADF818004720ADF8140089
:100A90000020ADF81A00ADF8160005A96A4802F06A
:100AA000C9FE6020ADF804000120CFE03C0000202A
:100AB0001400002028000020C00122424000002035
:100AC000180000202C0000204C000020080000200E
:100AD00050483A25302E316600000000F414002002
:100AE0000000002054656D3A25302E326620430008
:100AF000121500200400002048756D3A25302E3272
:100B000066202525000000003015002050485F5267
:100B1000454C3A25302E31660000000024000020AC
:100B200050485F5345545F483A25302E31660000E7
:100B30003800002050485F5345545F4C3A25302E12
:100B40003166000054656D5F52454C3A25302E31B8
:100B5000660000001C00002054656D5F5345545F23
:100B6000483A25302E3166003000002054656D5F14
:100B70005345545F4C3A25302E31660048756D5F01
:100B800052454C3A25302E316600000020000020EE
:100B900048756D5F5345545F483A25302E316600E5
:100BA0003400002048756D5F5345545F4C3A253042
:100BB0002E3166004C49475F52454C3A25302E3164
:100BC000662525004C49475F5345545F483A253018
:100BD0002E316625250000004C49475F5345545F80
:100BE0004C3A25302E316625250000005761745F90
:100BF00052454C3A25302E31662525005761745FE9
:100C00005345545F483A25302E31662525000000B3
:100C10005761745F5345545F4C3A25302E31662539
:100C2000250000004D414E5F4D4F4445000000003F
:100C300064000020000061440000C84200002F440E
:100C400044000020000C014000040040ADF8060004
:100C50000020ADF80C00ADF80A0001A9A24802F08E
:100C6000B5FE01A9A04802F0FCFE08219E4803F051
:100C700083FA08219C4803F088FA01219A4803F07E
:100C800035FA0021984803F031F909B000BD88B069
:100C900001F0C0FB4FF4A06001F0DEFC4FF4E13046
:100CA00001F030FC00F04EFA00F0ACFA00F016FF54
:100CB00000F03EFF00F04EFF012000F091FF0446DF
:100CC00005F020FD89490860042000F089FF0446F2
:100CD00005F018FD864908604FF4965000F049FE73
:100CE00001F0D6FA4FF4965000F043FE002001F0D8
:100CF00012F8002001F01DF810237EA20021084602
:100D000001F041F901F047F84FF47A7001F0BFFBB0
:100D100010237CA20021084601F035F901F03BF8D0
:100D20004FF47A7001F0B3FB10237AA20021084639
:100D300001F029F901F02FF84FF47A7001F0A7FBC8
:100D4000FFF74AFB012077490860322001F09FFB42
:100D500000207549C1F8C0010120724908390860B6
:100D60007149C1F8BC018DF8140003208DF81500FD
:100D700000208DF816008DF817008DF8180004205B
:100D80008DF8190044208DF81A0009208DF81B00F9
:100D9000002066490860091D086001206149091F9B
:100DA000086000206049C1F8C00101F017F800F0A8
:100DB000F2FFFFF74FFE4FF496705D49086045E083
:100DC000FFF746FAFFF728FE082105A800F035FED8
:100DD0004FF47A7001F05BFB07A901A800F051FE07
:100DE0009DF808109DF80700FFF704FA804605F00B
:100DF000BFF9064600224F4B05F026F8044604F0E2
:100E00003DFF4D4908609DF80A109DF80900FFF765
:100E1000F1F9804605F0ACF906460022454B05F095
:100E200013F8044604F02AFF444908609DF80E00B8
:100E300005F09EF9064600223E4B05F005F80446F3
:100E400004F01CFF3E490860FFF75AFCB8E700B504
:100E500089B00121082001F089FF0121022001F061
:100E600092FF0320ADF8200018208DF82300032006
:100E70008DF8220008A9334801F0BCFC40F2E730AD
:100E8000ADF818004720ADF814000020ADF81A00A6
:100E9000ADF8160005A9144802F0CCFC6020ADF8AE
:100EA00004000120ADF806000020ADF80C00ADF8FC
:100EB0000A0001A90C4802F089FD01A90A4802F0C4
:100EC000D0FD0821084803F057F90821064803F02F
:100ED0005CF90121044803F009F90121024803F0FB
:100EE00005F809B000BD0000000400400C0000201F
:100EF000100000204C6F6164696E672E2E2E3373D4
:100F0000000000004C6F6164696E672E2E2E3273F4
:100F1000000000004C6F6164696E672E2E2E3173E5
:100F200000000000C00122420000224280812142D4
:100F300044000020000024400400002000000020A5
:100F400008000020000C0140704700BFFEE700BF12
:100F5000FEE700BFFEE700BFFEE77047704770473F
:100F6000704700000CB50020019000906C480068AC
:100F700040F480306A49086000BF6948006800F4A6
:100F8000003000900198401C0190009818B9019819
:100F9000B0F5A06FF1D16248006800F4003010B1E4
:100FA0000120009001E0002000900098012843D12A
:100FB0005C48006840F010005A4908600846006824
:100FC00020F0030008600846006840F00200086056
:100FD000534840685249486008464068486008469F
:100FE000406840F4806048600846406820F47C1007
:100FF00048600846406840F4E810486008460068C9
:1010000040F08070086000BF4548006800F0007044
:101010000028F9D04248406820F003004049486069
:101020000846406840F00200486000BF3C48406805
:1010300000F00C000828F9D10CBD10B5FFF792FFA5
:1010400010BD10B53648006840F001003449086012
:1010500008464068344908403149486008460068FD
:10106000324908402E4908600846006820F4802074
:1010700008600846406820F4FE0048604FF41F00F6
:101080008860FFF7DAFF4FF000602949086010BD63
:1010900010B5002100200022214B5B6803F00C01F9
:1010A00021B1042906D0082928D107E0214B224C80
:1010B000236027E01F4B204C236023E0184B5B6824
:1010C00003F47010164B5B6803F48032022303EBC9
:1010D000904022B9194B4343174C23600DE0104B4D
:1010E0005B6803F4003323B1144B4343124C236079
:1010F00003E0104B4343104C236003E00D4B0E4CB8
:10110000236000BF00BF064B5B68C3F303130C4CA6
:10111000E15C094B1B68CB40074C236010BD00000D
:1011200000100240002002400000FFF8FFFFF6FE22
:1011300008ED00E000127A007C00002000093D006C
:101140008000002008B50121182001F00FFE2020AA
:10115000ADF8000010208DF8030003208DF8020088
:101160006946264801F046FB2021244801F0EFFBA8
:101170004FF48070ADF8000010208DF803000320BC
:101180008DF8020069461D4801F034FB0220ADF8DD
:10119000000010208DF8030003208DF8020069463E
:1011A000164801F027FB4FF40050ADF80000102066
:1011B0008DF8030003208DF802006946104801F005
:1011C00019FB4FF48040ADF8000010208DF80300AB
:1011D00003208DF802006946094801F00BFB4FF42B
:1011E0000040ADF8000010208DF8030003208DF8BA
:1011F00002006946024801F0FDFA08BD000C0140FA
:101200000010014008B50121042001F0AFFD4FF4AA
:101210006C40ADF8000048208DF803006946FE4898
:1012200001F0E8FA08BD2DE9F04180464FF48061F5
:10123000F94801F072FB002842D1052001F027F99E
:101240004FF48061F44801F068FB002838D1F3487E
:101250000088401CF14908800120F14908603220D3
:1012600001F015F90020EF49C1F8C0010120EC4957
:101270000860322001F00BF90020EA49C1F8C001F2
:1012800000F0ACFD00F087FDE4480088062808D196
:101290000021E54802F02AFE0020E4490860FEF73C
:1012A000ADFFDE480088072802D10020DB49088016
:1012B00000BF4FF48061D84801F02FFB0028F8D020
:1012C0004FF40061D44801F028FB00287ED10520AE
:1012D00001F0DDF84FF40061CF4801F01EFB00285B
:1012E000F4D1CE48008801281AD1D148006805F011
:1012F00091F806460022CF4B04F0F2FC044604F0BD
:10130000BDFCCB4908600846006805F083F8044638
:101310000022C94B04F0F0FE02D10020C44908604D
:10132000BE48008802281AD1C448006805F072F847
:1013300004460022C24B04F0D3FC064604F09EFC97
:10134000BE4908600846006805F064F804460022BB
:10135000BC4B04F0D1FE02D10020B8490860AF4870
:10136000008803281AD1B848006805F053F80446ED
:101370000022B34B04F0B4FC064604F07FFCB249F3
:1013800008600846006805F045F804460022AF4BA7
:1013900004F0B2FE02D10020AB4908609F480088EB
:1013A00004281CD1AA48006805F034F8044600223D
:1013B000A34B04F095FC064604F060FCA4490860C9
:1013C0000846006805F026F8044600E038E00022F0
:1013D0009E4B04F091FE02D100209D4908608F4889
:1013E000008805281AD19B48006805F013F80446C8
:1013F0000022934B04F074FC064604F03FFC954930
:1014000008600846006805F005F8044600228F4B86
:1014100004F072FE02D100208E490860012080494C
:101420000860322001F033F800207E49C1F8C00185
:1014300000BF4FF40061784801F06FFA0028F8D03F
:101440004FF40051744801F068FA00287ED105205D
:1014500001F01DF84FF400516F4801F05EFA0028CA
:10146000F4D16E48008801281AD17148006804F050
:10147000D1FF044600226F4B04F0E2FE064604F062
:10148000FDFB6B4908600846006804F0C3FF044692
:101490000022134604F030FE02D1002064490860A7
:1014A0005E48008802281AD16448006804F0B2FF40
:1014B00004460022624B04F0C3FE064604F0DEFB45
:1014C0005E4908600846006804F0A4FF0446002254
:1014D000134604F011FE02D10020584908604F481D
:1014E000008803281AD15848006804F093FF044686
:1014F0000022534B04F0A4FE064604F0BFFB524901
:1015000008600846006804F085FF04460022134680
:1015100004F0F2FD02D100204B4908603F480088EA
:1015200004281CD14A48006804F074FF04460022D5
:10153000434B04F085FE064604F0A0FB44490860D6
:101540000846006804F066FF044600E038E0002228
:10155000134604F0D1FD02D100203D4908602F4818
:10156000008805281AD13B48006804F053FF044660
:101570000022334B04F064FE064604F07FFB35493D
:1015800008600846006804F045FF04460022134640
:1015900004F0B2FD02D100202E490860012020494C
:1015A0000860322000F073FF00201E49C1F8C0011E
:1015B00000BF4FF40051184801F0AFF90028F8D0EF
:1015C0004FF48041144801F0A8F900287ED105208D
:1015D00000F05DFF4FF480410F4801F09EF90028B4
:1015E000F4D10E48008801283ED11B48006804F061
:1015F00011FF044600220F4B04F072FB064604F074
:101600003DFB154908600846006804F003FF0446E6
:101610000022094B22E00000000C01404C00002099
:10162000C001224200002242000400404400002089
:10163000240000200000E03F000025401C000020A6
:101640000000F03F0000444020000020000059400E
:10165000280000202C0000203800002004F04CFD61
:1016600002D10020A9490860A948008802281AD19F
:10167000A848006804F0CEFE04460022A64B04F001
:101680002FFB064604F0FAFAA249086008460068F3
:1016900004F0C0FE04460022A04B04F02DFD02D150
:1016A00000209C4908609A48008803281CD19C4867
:1016B000006804F0AFFE04460022974B04F010FBD4
:1016C000064604F0DBFA9649086000E05CE0084654
:1016D000006804F09FFE04460022924B04F00CFDCB
:1016E00002D100208E4908608948008804281AD158
:1016F0008D48006804F08EFE04460022864B04F0FC
:10170000EFFA064604F0BAFA87490860084600680E
:1017100004F080FE04460022824B04F0EDFC02D16E
:101720000020814908607A48008805281AD17F483E
:10173000006804F06FFE04460022774B04F0D0FAF4
:10174000064604F09BFA794908600846006804F0F0
:1017500061FE04460022734B04F0CEFC02D100204F
:1017600072490860012072490860322000F08FFE43
:1017700000207049C1F8C00100BF4FF480416E489D
:1017800001F0CBF80028F8D04FF400416A4801F08E
:10179000C4F800287ED1052000F079FE4FF4004106
:1017A000654801F0BAF80028F4D1594800880128AA
:1017B0001AD15648006804F02DFE044600225F4B03
:1017C00004F03EFD064604F059FA50490860084608
:1017D000006804F01FFE04460022134604F08CFC4F
:1017E00002D10020494908604948008802281AD1DE
:1017F0004848006804F00EFE04460022464B04F000
:101800001FFD064604F03AFA42490860084600689F
:1018100004F000FE04460022134604F06DFC02D1E1
:1018200000203C4908603A48008803281AD13C4807
:10183000006804F0EFFD04460022374B04F000FD81
:10184000064604F01BFA364908600846006804F0B2
:10185000E1FD04460022134604F04EFC02D10020B4
:101860002F4908602A48008804281CD12E480068A7
:1018700004F0D0FD04460022274B04F0E1FC0646AC
:1018800004F0FCF9284908600846006804F0C2FD2D
:10189000044600E038E00022134604F02DFC02D19B
:1018A0000020214908601A48008805281AD11F48DD
:1018B000006804F0AFFD04460022174B04F0C0FCA2
:1018C000064604F0DBF9194908600846006804F090
:1018D000A1FD04460022134604F00EFC02D10020B4
:1018E00012490860012012490860322000F0CFFD43
:1018F00000201049C1F8C00100BF4FF400410E485C
:1019000001F00BF80028F8D0BDE8F0813800002085
:101910004C000020300000200000F03F0000444058
:1019200034000020000059403C000020400000200E
:10193000C001224200002242000C01400000E03FB2
:1019400010B540F22551604801F034FC80B15E488A
:1019500001F0B0FBC4B25D480078402808DA5C486A
:101960005A490978445459480078401C574908702E
:1019700010BD10B586B0044601210C2001F0F6F927
:101980000121480401F0FFF94FF48070ADF8140014
:1019900010208DF8170003208DF8160005A94D487A
:1019A00000F028FF0420ADF8140018208DF817006F
:1019B00005A9484800F01EFF0820ADF814000420D7
:1019C0008DF8170005A9434800F014FF01214804D1
:1019D00001F0F3F900214FF4003001F0EEF9019429
:1019E0000020ADF80800ADF80A00ADF80C00ADF825
:1019F00010000C20ADF80E0001A9334801F05DFA8B
:101A000026208DF8000003208DF801008DF80200DB
:101A100001208DF80300684600F023FE012240F209
:101A20002551294801F0E1FA0121274801F0D1FAB6
:101A300000202949086006B010BD70B505460E4665
:101A400001202549086000240CE000BF40211E4809
:101A500001F09AFB0028F9D0295D1B4801F026FB14
:101A6000601CC4B2B442F0DB00BF4021164801F054
:101A70008BFB0028F9D00020144908701649086033
:101A800070BD2DE9F04107460D4610480678002448
:101A9000002028700A2000F0FAFC0C4800788642EA
:101AA0000FD176B100BF04E00948005D3855601CD5
:101AB000C4B2B442F8DB054800782870002003491E
:101AC0000870BDE8F0810000004400409000002054
:101AD0004E15002000080140A001214208B5012157
:101AE000082001F043F90120ADF8000010208DF826
:101AF000030003208DF8020069460C4800F07AFECE
:101B000001210A4800F023FF0220ADF80000102058
:101B10008DF8030003208DF802006946034800F0A9
:101B200069FE0221014800F012FF08BD000C0140CF
:101B300008B50121082001F019F94020ADF8000096
:101B400048208DF803006946014800F053FE08BDA7
:101B5000000C014000B587B001214FF4017001F085
:101B600005F94FF4004001F065F84020ADF804009D
:101B700000208DF8070001A9304800F03BFE3048F6
:101B800001F05CFB002002908DF80C008DF80D0038
:101B90004FF4602004900020059006208DF8180076
:101BA00002A9274801F071FB0121254801F099FBAA
:101BB000234801F0B8FB00BF214801F0B9FB002821
:101BC000FAD11F4801F0BEFB00BF1D4801F0BFFB6A
:101BD0000028FAD101211A4801F0C3FB07B000BD6B
:101BE00010B50446072301222146154801F0E5FB04
:101BF0000121134801F0B5FB00BF0221104801F09C
:101C000021FD0028F9D00E4801F03EFC10BD2DE961
:101C1000F04107460C460025002608E03846FFF74D
:101C2000DFFF0544052000F032FC701CC6B2A6425E
:101C3000F4DBB5FBF4F080B2BDE8F08100080140B0
:101C40000024014010B52021F84800F080FE8021DA
:101C5000F64800F07EFE8021F44800F078FE10BDCA
:101C600010B52021F14800F072FE2021EF4800F06D
:101C700070FE10BD70B5044600251BE02021EB4826
:101C800000F067FE04F0800020B18021E74800F0FA
:101C90005EFE03E08021E54800F05BFE2021E34882
:101CA00000F055FE2021E14800F053FE6006040ECE
:101CB000681CC5B2082DE1DB70BD10B58021DB4882
:101CC00000F045FE2021D94800F041FE8021D74890
:101CD00000F03FFE2021D54800F03BFE10BD70B55E
:101CE00005460C46FFF7E9FF7820FFF7C3FFFFF733
:101CF000B7FF1CB14020FFF7BDFF02E00020FFF757
:101D0000B9FFFFF7ADFF2846FFF7B4FFFFF7A8FFC5
:101D1000FFF798FF70BD10B504461CB90021A6203E
:101D2000FFF7DDFF012C03D10021A720FFF7D7FF2C
:101D300010BD10B504463CB90021C820FFF7CFFF05
:101D40000021A120FFF7CBFF012C07D10021C020EB
:101D5000FFF7C5FF0021A020FFF7C1FF10BD10B5A0
:101D600000218D20FFF7BBFF00211420FFF7B7FFF4
:101D70000021AF20FFF7B3FF10BD10B500218D206B
:101D8000FFF7ADFF00211020FFF7A9FF0021AF20D2
:101D9000FFF7A5FF10BD70B500241CE004F1B001F1
:101DA000C8B20021FFF79BFF00210846FFF797FF0D
:101DB00000211020FFF793FF002508E09C4901EB6C
:101DC000C501085D0121FFF78AFF681CC5B2802D9F
:101DD000F4DB601CC4B2082CE0DB70BD70B50024DD
:101DE0000CE0002506E00020914901EBC5010855F3
:101DF000681CC5B2802DF6DB601CC4B2082CF0DB79
:101E0000FFF7C9FF70BD70B50A46CE1701EB5676D5
:101E1000C6F3C703CE1701EB5676F610A1EBC60644
:101E2000F4B20122A240D5B2814A02EBC002D25CD8
:101E30002A437F4E06EBC006F25470BD70B50B46C8
:101E4000CE1701EB5676C6F3C702CE1701EB5676D6
:101E5000F610A1EBC606F4B20123A340DDB2744B29
:101E600003EBC0039B5CDB43714E06EBC006B3542F
:101E70006F4B03EBC0039B5C2B436D4E06EBC00620
:101E8000B3546B4B03EBC0039B5CDB43684E06EB28
:101E9000C006B35470BD2DE9FF4F81B080460E4699
:101EA0001C4600962046E31704EB5373DB102146D3
:101EB0004FEAE47C04EB5C7C4FEAEC0CA4EBCC0C2A
:101EC000BCF1000F02D04FF0010C01E04FF0000C0C
:101ED0006344224604EBD27C4FEA6C0C03FB0CF308
:101EE00003F0FF0B03982038C7B2002547E00C2C05
:101EF00007D107EB47004F4901EB800010F805A020
:101F000014E0102C05D14C4800EB071010F805A088
:101F10000CE0182C07D107EBC700484901EB800003
:101F200010F805A002E005B0BDE8F08F4FF0000901
:101F30001FE00AF0800020B131464046FFF763FF02
:101F400003E031464046FFF779FF4FEA4A604FEA27
:101F5000106A701CC6B20098301AA04205D1009ECB
:101F600008F1010000F0FF0806E009F1010000F0AF
:101F7000FF09B9F1080FDCDB00BF681CC5B25D4585
:101F8000B5DB00BFCFE7F0B506460F4614461D4649
:101F900013E022782B4639463046FFF77CFF28466F
:101FA00005EBD07106EB6101CEB2C5F18000B04205
:101FB00002DA0026B81CC7B2641C2078202802DB95
:101FC00020787E28E5DDF0BD10B50246012000E056
:101FD00050430B1EA1F10104E1B2F9D110BD2DE96E
:101FE000F04F06468A4691461F46099C002537E079
:101FF000781B401EC1B20A20FFF7E6FFB9FBF0F0E4
:102000000A21B0FBF1F201FB1208B8F1000F17D161
:10201000A34604EBDB71491001FB0561C8B22346FE
:1020200030225146FFF737FF18E00000000801405A
:102030008E150020926A0008066F0008F6740008EA
:10204000A34604EBDB71491001FB0561C8B208F13E
:102050003001CAB223465146FFF71DFF681CC5B2C6
:10206000BD42C5DBBDE8F08F2DE9FF4F074688462E
:1020700091461C464FF0000B0297CDF80480204695
:10208000E11704EB5171C1F3C701009160E009FB56
:1020900004F0C11700EB51710BEBE101CEB20BF173
:1020A000010000F0FF0B002550E0102C05D1D248B4
:1020B00000EB0610405D03901BE0182C07D106EBE7
:1020C000C600CE4901EBC000405D039011E0202C1A
:1020D00005D1CB4800EBC610405D039009E0402CD1
:1020E00005D1C84800EB4620405D039001E0BDE803
:1020F000FF8F4FF0000A17E0039800F0010020B1B5
:1021000041463846FFF77FFE03E041463846FFF779
:1021100095FE03984010039008F1010000F0FF08BD
:102120000AF1010000F0FF0ABAF1080FE4DB781CA5
:10213000C7B20298381AA04204D1029F0198083011
:10214000C0B20190DDF80480681CC5B2A542ACDBCA
:102150000098411EC9B20091002898D100BFC6E77F
:10216000804689460026002749E03FB910233246C1
:1021700018218020FFF778FF701CC6B2464522D197
:102180004FF0000A1AE0002410E000250AE09E4803
:1021900000EBC400415D601E9B4A02EBC00041554C
:1021A000681CC5B2082DF2DB601CC4B2902CECDBBD
:1021B000FFF7F1FD0AF1010000F0FF0A4FEA0910F4
:1021C0005045E0DC0026781CC7B2102F00D1002754
:1021D000002410E000250AE08B4800EBC400415DBC
:1021E000601E894A02EBC0004155681CC5B2082D2B
:1021F000F2DB601CC4B2902CECDBFFF7CCFDB4E743
:1022000070B504460D4605F1B001C8B20021FFF7D4
:1022100066FD102141EA14100021FFF760FD04F073
:102220000F0141F001000021FFF759FD70BD2DE9BC
:10223000F05F05460E4617469846DDF828B04FF089
:102240000009CA460024E11704EB5171C910A4EB40
:10225000C10101B901E0601CC4B2344614E021465A
:102260002846FFF7CDFFAA460AE01BF80900012126
:10227000FFF735FD09F101090AF1010000F0FF0A3D
:10228000BA45F2DB601CC4B24445E8DBBDE8F09F10
:1022900008B50121042000F069FDB020ADF8000070
:1022A00010208DF8030003208DF80200694657487E
:1022B00000F0A0FAB021554800F049FB01210820A8
:1022C00000F054FD0320ADF8000010208DF803004D
:1022D00003208DF8020069464D4800F08BFA032177
:1022E0004B4800F034FB0821494800F030FB6420E3
:1022F00000F0CDF80821464800F02BFBC82000F084
:10230000C6F80821424800F022FB1021404800F0A6
:1023100020FB0021AE20FFF7E2FC00210846FFF77A
:10232000DEFC00211020FFF7DAFC00214020FFF73F
:10233000D6FC00218120FFF7D2FC0021CF20FFF73F
:10234000CEFC0021A120FFF7CAFC0021C820FFF726
:10235000C6FC0021A620FFF7C2FC0021A820FFF741
:10236000BEFC00213F20FFF7BAFC0021D320FFF77D
:10237000B6FC00210846FFF7B2FC0021D520FFF78C
:10238000AEFC00218020FFF7AAFC0021D920FFF736
:10239000A6FC0021F120FFF7A2FC0021DA20FFF7C4
:1023A0009EFC00211220FFF79AFC0021DB20FFF7A2
:1023B00096FC00214020FFF792FC00212020FFF72F
:1023C0008EFC00210220FFF78AFC00218D20FFF700
:1023D00086FC00211420FFF782FC0021A420FFF7D7
:1023E0007EFC0021A620FFF77AFC0021AF20FFF73A
:1023F00076FCFFF7F3FC08BD91000020F1010020FE
:10240000C9020020C90400208E15002000080140E8
:10241000000C014010B56FF0040000F06CF92E487C
:1024200000682E49B0FBF1F02D490870084600788D
:1024300000EB4001C1EBC0104FF6FF7101EAC00094
:102440002849088010BD0146254A12784A434FF0BA
:10245000E0235A6100229A611A46126942F0010291
:102460001A6100BF4FF0E022106900F001021AB1BA
:1024700000F48032002AF5D04FF0E022126922F0F9
:1024800001024FF0E0231A6100229A617047014671
:10249000144A12884A434FF0E0235A6100229A619D
:1024A0001A46126942F001021A6100BF4FF0E022A1
:1024B000106900F001021AB100F48032002AF5D050
:1024C0004FF0E022126922F001024FF0E0231A617E
:1024D00000229A61704700007C00002000127A0000
:1024E000CA140020CC14002000BF704700BF444A2B
:1024F000128802F04002002AF9D0C2B2404B1B1DE4
:102500001A80704710B586B00446012144F20400D9
:1025100000F02CFC4FF40070ADF8140003208DF88F
:10252000160018208DF8170005A9364800F062F94A
:102530004FF48060ADF8140004208DF8170005A951
:10254000304800F057F925208DF8000003208DF861
:1025500001008DF8020001208DF80300684600F0AC
:1025600080F801940020ADF80800ADF80A00ADF83D
:102570000C00ADF810000C20ADF80E0001A92048A9
:1025800000F09BFC012240F225511D4800F02DFD7A
:1025900001211B4800F01DFD06B010BD10B504461A
:1025A000194A1AA1204602F077F8012807D11648E7
:1025B000006808B1012000E000201649087010BD35
:1025C00010B540F225510E4800F0F4FDB0B10C48B2
:1025D00000F070FDC4B2302C03D100200D4908700A
:1025E00006E0312C04DB392C02DC0120094908709B
:1025F00040F22551024800F007FE00BF10BD000068
:102600000038014000080140D414002050756D705E
:102610003D256400480000200948804709480047DC
:10262000FEE7FEE7FEE7FEE7FEE7FEE7FEE7FEE782
:10263000FEE7FEE704480549054A064B70470000DF
:1026400043100008ED000008701A002070200020E0
:10265000701C0020701C002031490143314A116078
:10266000704770B5002100230F22C47804B32D4CAD
:10267000246804F4E064C4F5E064210AC1F10403B1
:10268000CA40447804FA03F18478144021430901D4
:10269000254C0678A155047804F01F050124AC40B0
:1026A00005786D11AD0005F1E025C5F8004109E0A0
:1026B000047804F01F050124AC401C4D0678761107
:1026C00045F8264070BD1A4A0A400243154B1B1FAD
:1026D0001A60704739B1134A121D12680243114B38
:1026E0001B1D1A6006E00F4A121D126882430D4B33
:1026F0001B1D1A607047042808D14FF0E0210969BA
:1027000041F004014FF0E022116107E04FF0E021B9
:10271000096921F004014FF0E022116170470000C7
:102720000000FA050CED00E000E400E080E100E0CC
:1027300080FFFF1F10B50446CC48844208D1012118
:10274000042000F02DFB0021042000F029FB46E0CE
:10275000C748844208D10121082000F021FB002154
:10276000082000F01DFB3AE0C248844208D1012154
:10277000102000F015FB0021102000F011FB2EE0CE
:10278000BD48844208D10121202000F009FB00212E
:10279000202000F005FB22E0B848844208D1012146
:1027A000402000F0FDFA0021402000F0F9FA16E088
:1027B000B348844208D10121802000F0F1FA0021C1
:1027C000802000F0EDFA0AE0AE48844207D10121F2
:1027D000801500F0E5FA0021A01500F0E1FA10BD27
:1027E00010B50121084600F0DBFA0021012000F0BD
:1027F000D7FA10BD2DE9F041024600250026002041
:1028000000230024002791F803C00CF00F0591F875
:1028100003C00CF0100CBCF1000F03D091F802C003
:102820004CEA050591F800C0BCF1000F31D01468E6
:1028300000202BE04FF0010C0CFA00F3B1F800C0BF
:102840000CEA03069E4220D183004FF00F0C0CFAD5
:1028500003F7BC4305FA03FC4CEA040491F803C0F7
:10286000BCF1280F06D14FF0010C0CFA00FCC2F8A5
:1028700014C00AE091F803C0BCF1480F05D14FF035
:10288000010C0CFA00FCC2F810C0401C0828D1D37F
:102890001460B1F800C0BCF1FF0F34DD54680020B3
:1028A0002EE000F1080C4FF0010808FA0CF3B1F823
:1028B00000C00CEA03069E4221D183004FF00F0CAA
:1028C0000CFA03F7BC4305FA03FC4CEA040491F844
:1028D00003C0BCF1280F05D100F1080C08FA0CF870
:1028E000C2F8148091F803C0BCF1480F07D100F181
:1028F000080C4FF0010808FA0CF8C2F81080401CD0
:102900000828CED35460BDE8F0814FF6FF710180F6
:10291000022181700421C170704702460020936833
:102920000B400BB1012000E0002070470146886891
:1029300080B2704702460020D3680B400BB10120E3
:1029400000E0002070470146C86880B2704701610E
:102950007047416170470AB1016100E04161704711
:10296000C16070474FF480320A43826181618261A5
:1029700082698269704702460020434B18684FF60F
:102980008073184040EA021008433F4B18607047BC
:102990003E49C8617047F0B50A4600230024002173
:1029A000002500F00046B6F1004F02D1364EF16925
:1029B00001E0354E7168C0F3034583B200F4401660
:1029C000B6F5401F08D121F070612F4E766826F0D1
:1029D00070662D4F7E6012E000F48016B6F5801F01
:1029E00006D1032606FA05F4A14341F0706106E022
:1029F000460D360103FA06F6B14341F0706122B18B
:102A0000460D360103FA06F6314300F00046B6F1F2
:102A1000004F02D11C4EF16101E01B4E7160F0BD10
:102A200030B500228B071C0F0F2303FA04F2164B5C
:102A300008338C1053F824309343134C08348D1012
:102A400044F8253023468C1053F824308C07240F8B
:102A500000FA04F423430C4C08348D1044F825305C
:102A600030BD0A49DC3108607047000000080140B1
:102A7000000C01400010014000140140001801400A
:102A8000001C0140002001400000014000002042E5
:102A9000DF48006840F00100DD49086008464068F2
:102AA000DC490840DA49486008460068DA490840CD
:102AB000D74908600846006820F48020086008466E
:102AC000406820F4FE0048604FF41F0088607047A3
:102AD000CF49096821F48031CD4A11601146096857
:102AE00021F480211160B0F5803F03D0B0F5802F34
:102AF0000ED106E0C649096841F48031C44A11602C
:102B000007E0C349096841F4A021C14A116000E00F
:102B100000BF00BF704710B501460022002300200F
:102B20004A11012A02D1BA4C236806E0022A02D1D6
:102B3000B74C236A01E0B64C636A01F01F0201241E
:102B400094401C400CB1012000E0002010BD38B5BD
:102B5000002000900024002500BF3120FFF7DBFF9C
:102B600005460098401C00900098B0F5A06F01D079
:102B7000002DF2D03120FFF7CEFF08B1012400E094
:102B80000024204638BD01460020A14A106820F0EC
:102B9000F80040EAC10010607047A0490860704723
:102BA000024600209A4B586820F47C1042EA010348
:102BB0001843974B5860704798490866704701461C
:102BC0000020934A506820F003000843506070478B
:102BD0008F48406800F00C007047014600208C4A86
:102BE000506820F0F0000843506070470146002014
:102BF000874A506820F4E0600843506070470146FF
:102C00000020834A506820F4605040EAC1005060C0
:102C1000704729B17E4A527A02437D4B5A7204E0D2
:102C20007B4A527A82437A4B5A7270477B49D83139
:102C30000860704701460020754A506820F4404003
:102C40000843506070470021714A20321170704A69
:102C500082F82010012802D004280AD104E00121C2
:102C60006B4A2032117005E00521694A203211704B
:102C700000E000BF00BF70476949086070476449C1
:102C8000096A0143624A1162704765494439086024
:102C9000704730B500210022002400235C4D6D6890
:102CA00005F00C0121B1042905D0082923D105E044
:102CB0005C4D056022E05B4D05601FE0544D6D6882
:102CC00005F47012524D6D6805F48034022505EB51
:102CD00092421CB9544D554305600BE04C4D6D6854
:102CE00005F400351DB1504D5543056002E04D4DD2
:102CF0005543056002E04B4D056000BF00BF444DE9
:102D00006D6805F0F0010909484D6B5C0568DD4010
:102D100045603F4D6D6805F4E061090A434D6B5C09
:102D20004568DD4085603A4D6D6805F46051C90A1B
:102D30003E4D6B5C4568DD40C560354D6D6805F402
:102D40004041890B3A4D6B5CC568B5FBF3F50561F5
:102D500030BD29B12E4A526902432D4B5A6104E01D
:102D60002B4A526982432A4B5A61704729B1284A3B
:102D700092690243264B9A6104E0254A9269824394
:102D8000234B9A61704729B1214AD2690243204BF3
:102D9000DA6104E01E4AD26982431D4BDA61704752
:102DA00029B11B4AD2680243194BDA6004E0184A81
:102DB000D2688243164BDA60704729B1144A12690F
:102DC0000243134B1A6104E0114A12698243104B0B
:102DD0001A61704712494039086070470F49C8644A
:102DE00070470B49C87170470948406A40F08070CD
:102DF00007494862704701460020054A92680A4028
:102E00000AB1012000E00020704701498872704734
:102E1000001002400000FFF8FFFFF6FE00004242F3
:102E20008004424200127A0000093D00DE140020B6
:102E3000EE14002010B50446FB48844209D101215C
:102E40008803FFF7ADFF00214FF48040FFF7A8FF94
:102E500032E0F648844209D101214804FFF7ADFF72
:102E600000214FF40030FFF7A8FF25E0F04884422E
:102E700009D101218804FFF7A0FF00214FF4802031
:102E8000FFF79BFF18E0EB48844209D10121C804F9
:102E9000FFF793FF00214FF40020FFF78EFF0BE0B8
:102EA000E548844208D101210805FFF786FF00218B
:102EB0004FF48010FFF781FF10BD2DE9F04786B079
:102EC00005460E460024A24600BFA1460027B08951
:102ED00000B100BF2F462C8A4CF6FF700440F088EA
:102EE00004432C82AC894EF6F3100440B08831893B
:102EF0000843718908430443AC81AC8A4FF6FF4014
:102F00000440B0890443AC8201A8FFF7C2FEC64862
:102F1000874202D1DDF810A001E0DDF80CA0A889FD
:102F200000F4004040B10AEBCA0000EB0A1031681F
:102F30004900B0FBF1F807E00AEBCA0000EB0A1009
:102F400031688900B0FBF1F86420B8FBF0F00401AF
:102F50002009642101FB1089A88900F4004040B1D8
:102F6000322000EBC900B0FBF1F000F00700044391
:102F700008E0322000EB09106421B0FBF1F000F012
:102F80000F0004432C8106B0BDE8F0874FF41651C2
:102F9000016000218180C18001810C2141810021DB
:102FA0008181704710B502460020108A4FF2FF035E
:102FB00018400B884C8823438C882343CC882343B8
:102FC0001843108210BD0021018041808180C180A2
:102FD000704721B1828942F40052828104E08289E3
:102FE0004DF6FF731A4082817047F0B50346002406
:102FF00000260025002040F66A17B94200D100BF24
:103000001846C1F3421401F01F06012707FA06F51E
:10301000012C01D10C3004E0022C01D1103000E071
:1030200014301AB107682F43076002E00768AF4306
:103030000760F0BD1AB1838A0B43838202E0838A62
:103040008B4383827047028A4FF6F0731A400282E4
:10305000028A0A430282704782894FF2FF731A4044
:10306000828182890A438281704721B1828942F03C
:103070000202828104E082894FF6FD731A40828148
:103080007047028A4FF6DF731A400282028A0A43AF
:103090000282704721B1028A42F48042028204E037
:1030A000028A4BF6FF731A4002827047C1F308028E
:1030B0008280704701468888C0F308007047818984
:1030C00041F0010181817047028BD2B20283028BF1
:1030D00042EA012202837047028B02F47F4202839C
:1030E000028B0A430283704721B1828A42F0200298
:1030F000828204E0828A4FF6DF731A408282704730
:1031000021B1828A42F01002828204E0828A4FF664
:10311000EF731A408282704721B1828A42F008021E
:10312000828204E0828A4FF6F7731A4082827047E7
:1031300021B1828942F40042828103E08289C2F394
:103140000E028281704721B1828A42F4006282823B
:1031500004E0828A4FF2FF731A4082827047828AAB
:103160004FF6FB731A408282828A0A43828270473A
:1031700021B1828A42F00202828204E0828A4FF602
:10318000FD731A408282704702460020B1F5007F2D
:1031900000D100BF13880B400BB1012000E00020DC
:1031A000704701F40072B2F5007F00D100BFCA433E
:1031B0000280704770B502460024002300250020DD
:1031C00040F66A16B14200D100BFC1F3421501F0CA
:1031D0001F03012606FA03F3012D02D1968933401D
:1031E00006E0022D02D1168A334001E0968A334070
:1031F0000C12012606FA04F41688344013B10CB1FF
:10320000012000E0002070BD10B50022002340F630
:103210006A14A14200D100BF0A1201249440A3B253
:10322000DC43048010BD0000003801400044004031
:1032300000480040004C00400050004010B50446DB
:10324000FA48844208D101214015FFF7A9FD002169
:103250006015FFF7A5FD17E0F548844208D101216C
:103260000015FFF79DFD00212015FFF799FD0BE0EC
:10327000F048844208D10121C803FFF791FD0021E5
:103280004FF40040FFF78CFD10BD30B50246002022
:1032900000235068E84C20400D790C6844EA05246E
:1032A000204350609068E54C2040D1E902542C4303
:1032B0004D7944EA450420439060D06A20F47000C0
:1032C0000C7C641EE4B2234340EA0350D06230BD5C
:1032D00000210160017141718160C16001210174AF
:1032E000704721B1826842F00102826003E0826887
:1032F00022F001028260704721B1826842F480723C
:10330000826003E0826822F480728260704710B5A8
:103310000023CBB21AB144681C43446002E0446805
:103320009C43446010BD816841F008018160704792
:10333000014600208A6802F008020AB1012000E07C
:1033400000207047816841F00401816070470146A8
:1033500000208A6802F004020AB1012000E0002087
:10336000704721B1826842F4A002826003E0826863
:1033700022F4A00282607047014600208A6802F4AD
:1033800080020AB1012000E00020704710B50A4613
:1033900000210023416821F46041531E41EA43317A
:1033A000416010BD21B1426842F40062426003E016
:1033B000426822F4006242607047F0B504460D4650
:1033C00000200021092D11DDE068A5F10A0606EBB9
:1033D0004607072606FA07F18843A5F10A0606EB19
:1033E000460603FA06F10843E0600CE0206905EBAD
:1033F0004507072606FA07F1884305EB450603FA59
:1034000006F108432061072A0FDA606B561E06EBAF
:1034100086071F2606FA07F18843561E06EB860626
:1034200005FA06F10843606322E00D2A0FDA206BEB
:10343000D61F06EB86071F2606FA07F18843D61F1C
:1034400006EB860605FA06F10843206310E0E06A01
:10345000A2F10D0606EB86071F2606FA07F1884340
:10346000A2F10D0606EB860605FA06F10843E062B6
:10347000F0BD21B1826842F48012826003E082686C
:1034800022F48012826070470146C86C80B2704797
:1034900066484C300068704721B1426842F480624F
:1034A000426003E0426822F480624260704721B1CA
:1034B000426842F48052426003E0426822F4805243
:1034C000426070470A460021816821F4E0411143BF
:1034D0008160704721B1826842F40042826003E05B
:1034E000826822F400428260704721B1826842F40F
:1034F0000212826003E0826822F402128260704746
:10350000014600208A6802F400120AB1012000E09E
:1035100000207047F0B50446154600200022002622
:10352000092911DDE068A1F10A0707EB470C07271D
:1035300007FA0CF29043A1F10A0707EB470703FAD9
:1035400007F21043E0600CE0206901EB410C072713
:1035500007FA0CF2904301EB410703FA07F210431C
:103560002061A06BC0F30156EF1C06F1010CA7EB24
:103570000C0707EB870C1F2707FA0CF29043EF1C90
:1035800006F1010CA7EB0C0707EB870701FA07F21E
:103590001043A063F0BD10B50A4600210023816BE3
:1035A00021F44011531E41EA0351816310BD08B557
:1035B000002300930090009B0B440093009B1A6033
:1035C00008BD08B5024600200090009201F12800D5
:1035D000009B184400900098006880B208BD0A461D
:1035E00000214168164B1940114341607047416208
:1035F000826270470A460021416821F01F01114391
:103600004160704740B109490831096841F400013F
:10361000064A0832116007E004490831096821F4BC
:103620000001024A08321160704700000024014086
:1036300000280140003C0140FFFEF0FFFDF7F1FFD4
:10364000FFFD3FFF0246002013680B400BB1012035
:1036500000E000207047CA430260704770B5024620
:103660000020002300240B125568CEB205EA0604A0
:1036700015681D4015B10CB1012000E0002070BD9F
:1036800000220A12D34303607047000010B50446BD
:10369000FE48844208D10121C014FFF781FB0021BC
:1036A000E014FFF77DFBC4E0B4F1804F08D10121A5
:1036B0000846FFF782FB00210120FFF77EFBB8E000
:1036C000F348844208D101210220FFF776FB002154
:1036D0000220FFF772FBACE0EE48844208D10121E2
:1036E0000420FFF76AFB00210420FFF766FBA0E03F
:1036F000E948844208D101210820FFF75EFB002140
:103700000820FFF75AFB94E0E448844208D10121E5
:103710001020FFF752FB00211020FFF74EFB88E03E
:10372000DF48844208D101212020FFF746FB002119
:103730002020FFF742FB7CE0DA48844208D10121D7
:103740004014FFF72DFB00216014FFF729FB70E008
:10375000D548844209D10121C804FFF721FB00218B
:103760004FF40020FFF71CFB63E0D048844209D1EE
:1037700001210805FFF714FB00214FF48010FFF72B
:103780000FFB56E0CA48844209D101214805FFF7E2
:1037900007FB00214FF40010FFF702FB49E0C5488A
:1037A000844208D101214020FFF707FB002140207F
:1037B000FFF703FB3DE0C048844208D1012180208F
:1037C000FFF7FBFA00218020FFF7F7FA31E0BB4852
:1037D000844208D101218015FFF7EFFA0021A015DE
:1037E000FFF7EBFA25E0B648844209D1012108042D
:1037F000FFF7D6FA00214FF48030FFF7D1FA18E036
:10380000B048844209D101214804FFF7C9FA0021D8
:103810004FF40030FFF7C4FA0BE0AB48844208D104
:1038200001218804FFF7BCFA00214FF48020FFF744
:10383000B7FA10BD00220288944B98420ED0994BE3
:1038400098420BD0B0F1804F08D0914B984205D0F0
:10385000904B984202D0904B984204D14FF68F7310
:103860001A404B881A438D4B984207D08C4B984294
:1038700004D04FF6FF431A40CB881A4302808B884E
:1038800083850B880385814B98420BD0854B9842EA
:1038900008D08B4B984205D08A4B984202D08A4B75
:1038A000984201D10B7A038601238382704770B559
:1038B000002400220023058C4FF6FE763540058457
:1038C000028C8388048B4FF68F752C40B51E2C40DC
:1038D0000D882C43751E2A400D892A434D882A43A2
:1038E0006A4DA8420BD06F4DA84208D0744DA84233
:1038F00005D0744DA84202D0734DA84213D14FF6A3
:10390000F7752A404D892A434FF6FB752A408D886A
:103910002A434FF6FF652B404FF6FF552B408D890C
:103920002B43CD892B4383800483CD8885860284F5
:1039300070BD70B5002400220023058C4FF6EF7691
:1039400035400584028C8388048B48F6FF752C4033
:103950004FF6FF452C400D884FF6FF7606EA052509
:103960002C434FF6DF752A400D8906EA05152A43D8
:103970004D8806EA05152A43444DA84202D0494D18
:10398000A8421DD14FF67F752A404D894FF6FF762C
:1039900006EA05152A434FF6BF752A408D8806EAC8
:1039A00005152A434FF6FF352B404FF2FF752B408C
:1039B0008D8906EA85052B43CD8906EA85052B43CB
:1039C00083800483CD880587028470BD70B5002490
:1039D00000220023058C4FF6FF6635400584028CDB
:1039E0008388848B4FF68F752C404FF6FC752C40E6
:1039F0000D882C434FF6FF552A400D894FF6FF7670
:103A000006EA05252A434D8806EA05252A431F4D67
:103A1000A84202D0234DA8421DD14FF2FF752A4083
:103A20004D894FF6FF7606EA05252A434FF6FF3506
:103A30002A408D8806EA05252A434EF6FF752B405D
:103A40004DF6FF752B408D8906EA05152B43CD8970
:103A500006EA05152B4383808483CD8885870284FD
:103A600070BD70B5002200230024058C4EF6FF7651
:103A700035400584038C8488828B48F6FF752A4084
:103A80004FF6FF452A400D8820E00000002C014041
:103A90000004004000080040000C004000100040FE
:103AA0000014004000340140004C0140005001402F
:103AB0000054014000180040001C0040002000405D
:103AC0000040014000440140004801404FF6FF76AD
:103AD00006EA05252A434DF6FF752B400D8906EAB7
:103AE00005352B434D8806EA05352B43FA4DA84290
:103AF00002D0FA4DA84208D14BF6FF752C408D89B3
:103B00004FF6FF7606EA85152C4384808283CD88A4
:103B1000A0F84050038470BD828B4FF2FF331A40EF
:103B20008283828B4FF6FF7303EA01231A43828359
:103B30007047F0B50C461546002200210026078C80
:103B40004EF6FF7C07EA0C070784828B018C4FF648
:103B5000FF7707EA043640F6FF473A404FF6FF7713
:103B600007EA05273A434FF6FF7707EA03373A4358
:103B7000D94FB8420ED0D94FB8420BD0B0F1804FD8
:103B800008D0D74FB84205D0D64FB84202D0D64F52
:103B9000B84206D14DF6FF77394046F48057394395
:103BA00005E047F6FF57394044F480573943828394
:103BB0000184F0BD828B4FF6F3731A408283828BAF
:103BC0000A4382837047F0B50C4615460022002157
:103BD0000026078C4FF6FF6C07EA0C070784828BE0
:103BE000018C4FF6FF7707EA04264FF60C773A4030
:103BF0004FF6FF7707EA03172F433A43B64FB84211
:103C00000ED0B64FB8420BD0B0F1804F08D0B44FB1
:103C1000B84205D0B34FB84202D0B34FB84206D134
:103C20004FF6FF57394046F48077394305E04FF2AD
:103C3000FF57394044F48077394382830184F0BDD3
:103C4000028B4FF2FF331A400283028B4FF6FF7351
:103C500003EA01231A4302837047F0B50C46154668
:103C6000002200210026078C4FF6EF7C07EA0C07A4
:103C70000784028B018C4FF6FF7707EA041640F6A3
:103C8000FF473A404FF6FF7707EA03373A434FF6CC
:103C9000FF7707EA05273A438F4FB8420ED08F4F80
:103CA000B8420BD0B0F1804F08D08D4FB84205D04C
:103CB0008C4FB84202D08C4FB84206D14FF6DF7716
:103CC000394046F01007394305E04FF65F77394039
:103CD00044F01007394302830184F0BD028B4FF694
:103CE000F3731A400283028B0A4302837047F0B5D4
:103CF0000C46154600220021068C4FF6FE773E400A
:103D00000684028B018C4FF60C7632407E1C06EA4C
:103D100003162E433243704EB0420ED06F4EB04267
:103D20000BD0B0F1804F08D06D4EB04205D06D4E33
:103D3000B04202D06C4EB04206D14FF6FD76314013
:103D400044F00106314305E04FF6F576314044F08A
:103D50000106314302830184F0BD70B505460C466F
:103D60005D4885420ED05D4885420BD0B5F1804F4D
:103D700008D05B48854205D05A48854202D05A484F
:103D8000854200D100E000BF208850B92389A28875
:103D900061882846FFF7ABFFE1882846FFF79EFFC2
:103DA00025E0208804280AD12389A2886188284632
:103DB000FFF753FFE1882846FFF742FF17E020880E
:103DC00008280AD12389A28861882846FFF7FBFECC
:103DD000E1882846FFF7EEFE09E02389A288618882
:103DE0002846FFF7A6FEE1882846FFF795FE70BD3E
:103DF0002DE9F04105460C4600260127608808B9E8
:103E0000022600E00026A088012801D1022700E058
:103E100001272088A0B92389A28861882846FFF756
:103E200066FFE1882846FFF759FF23893A46314665
:103E30002846FFF712FFE1882846FFF701FF13E04D
:103E40002389A28861882846FFF707FFE188284672
:103E5000FFF7F6FE23893A4631462846FFF747FF2B
:103E6000E1882846FFF73AFFBDE8F0810A884B88D1
:103E70001A438B881A43CB881A430B891A434B8900
:103E80001A438B891A43A0F8442070474FF6FF71FC
:103E9000818000210180C180418001727047002132
:103EA000018041808180C180018141818181C18106
:103EB0007047002101804180012181800021C18063
:103EC000018170470021018041808180C180018192
:103ED0004181818170470000002C01400034014085
:103EE0000004004000080040000C004021B102889E
:103EF00042F00102028004E002884FF6FE731A408D
:103F00000280704731B1B0F8442042F40042A0F87A
:103F1000442005E0B0F84420C2F30E02A0F844208B
:103F200070471AB183890B43838102E083898B43F5
:103F3000838170478182704741EA0203A0F84830CC
:103F400070471AB183890B43838102E083898B43D5
:103F50008381704701894FF6F872114001817047E3
:103F60000A46002101894FF68F73194011430181E0
:103F7000704730B504460D4629462046FFF7F0FF4E
:103F8000208940F00700208130BD2DE9F041044632
:103F90000D4616461F46602D06D13B46012231468E
:103FA0002046FFF75AFE05E03B46012231462046F7
:103FB000FFF79DFE29462046FFF7D2FF208940F0FB
:103FC00007002081BDE8F08130B50C460021018951
:103FD000C9B24FF6FF7505EA03251543254329436A
:103FE000018130BD2DE9F04105460E461746984641
:103FF000002443463A4631462846FFF7E5FF2C8920
:104000004FF6F870044044F007044FF68F700440F8
:1040100044F070042C81BDE8F081F0B504460D46F3
:1040200016461F463B46324629462046FFF7CCFF40
:10403000208940F480402081F0BD01858282704754
:104040000A46002101884FF68F7319401143018001
:104050007047F0B50C4615461E460021002200238D
:104060000189028B038C4FF6F877394021434FF6D4
:10407000FC473A4040F201173A434FF6DD773B40A8
:104080004FF6FF7707EA06172F433B430181028370
:104090000384F0BD0A460021018B4FF68F7319404F
:1040A0001143018370470A460021018B48F6FF73D4
:1040B00019404FF6FF7303EA022319430183704747
:1040C0000A460021818B4FF68F731940114381837B
:1040D00070470A460021818B48F6FF7319404FF65E
:1040E000FF7303EA022319438183704721B10288D9
:1040F00042F08002028004E002884FF67F731A408B
:104100000280704721B1828842F00402828004E07C
:1041100082884FF6FB731A408280704721B18288F3
:1041200042F00802828004E082884FF6F7731A405A
:104130008280704721B1828842F00102828004E0CF
:1041400082884FF6FE731A40828070470A4600212B
:10415000018B4FF6F77319401143018370470A46EC
:104160000021018B4FF2FF7319404FF6FF7303EAF2
:1041700002231943018370470A460021818B4FF6C1
:10418000F77319401143818370470A460021818BE0
:104190004FF2FF7319404FF6FF7303EA02231943EE
:1041A000818370470A460021018B4FF6FB7319404B
:1041B0001143018370470A460021018B4FF6FF33FC
:1041C00019404FF6FF7303EA022319430183704736
:1041D0000A460021818B4FF6FB73194011438183FE
:1041E00070470A460021818B4FF6FF3319404FF686
:1041F000FF7303EA02231943818370470A460021B3
:10420000018B4FF67F7319401143018370470A46B3
:104210000021018BC1F30E014FF6FF7303EA022365
:104220001943018370470A460021818B4FF67F7343
:1042300019401143818370470A460021818BC1F3E5
:104240000E014FF6FF7303EA02231943818370477F
:104250000A460021018C4FF6FD7319401143018479
:1042600070470A460021018C4FF6F773194011433D
:10427000018470470A460021018C4FF6DF73194014
:104280004FF6FF7303EA02131943018470470A468D
:104290000021018C4FF67F7319404FF6FF7303EA3C
:1042A00002131943018470470A460021018C4FF61E
:1042B000FF5319404FF6FF7303EA022319430184A9
:1042C00070470A460021018C4FF2FF7319404FF6E8
:1042D000FF7303EA02231943018470470A46002151
:1042E000018C4DF6FF7319404FF6FF7303EA02335A
:1042F00019430184704730B5002301248C40A3B2D8
:10430000048C9C430484048C02FA01F5ADB22C4366
:10431000048430BD30B5002304248C40A3B2048C47
:104320009C430484048C02FA01F5ADB22C4304844E
:1043300030BD70B503460020002418461830012512
:104340008D40ACB21D8CA5431D8409B1082909D14B
:1043500000EB6100056825F07005056005681543F0
:1043600005600EE00D1FC5F34E052844056825F4D1
:10437000E045056005684FF6FF7606EA02263543FC
:10438000056070BD21B1028842F00202028004E0A3
:1043900002884FF6FD731A400280704721B10288EF
:1043A00042F00402028004E002884FF6FB731A40D8
:1043B0000280704721B1828842F08002828004E04E
:1043C00082884FF67F731A408280704702884FF6CA
:1043D000F7731A40028002880A430280704782887D
:1043E0004FF68F731A40828082880A43828070471A
:1043F00002894FF6F8731A40028102890A4302814A
:10440000704702894FF67F731A40028102890A437E
:10441000028170478184704781857047818670472B
:104420000187704781877047A0F840107047028865
:104430004FF6FF431A40028002880A430280704709
:104440000146888E70470146088F70470146888F65
:1044500070470146B1F8400070470146888C7047AC
:104460000146088D704702460020138A0B400BB1AD
:10447000012000E000207047CA430282704730B537
:104480000246002000230024158A05EA01039589CD
:1044900005EA010413B10CB1012000E0002030BD99
:1044A000CA430282704770470FB4044910B503AA8B
:1044B000029800F03FFC10BC5DF814FBD8140020FB
:1044C0000FB41CB5074B06AA7B44694600900598BB
:1044D00000F017FC0020694600F026FC1CBC5DF8CB
:1044E00014FB00005D0800002DE9F04106460024A1
:1044F00010687529314616A510D0AFF3008000284A
:1045000002DA404213A507E031688A0701D512A5F7
:1045100002E0490704D511A5012401E0AFF30080B2
:1045200000210A2206F1240709E0B0FBF2FCB0FBEF
:10453000F2F302FB1C00303078541846491C002866
:10454000F3D123462A463046BDE8F04100F06CB96D
:10455000000000002D0000002B00000020000000E3
:104560002DE9F05F894604464FF0000ADFF824B1D8
:10457000FB44C0F820A02046E168884700287DD091
:10458000252806D0D4E901219047206A401C2062EA
:10459000F1E700255F462046E16888472028064667
:1045A00007DB312E05D2B81910F8200C08B10543ED
:1045B000F1E7A80701D525F00405C4F81CA00027E1
:1045C000C4F818A02A2E09D0304601F023FB38B3D6
:1045D00004EB8708303EC8F8186019E059F8041B4E
:1045E000204604EB87029161E1688847012F064667
:1045F00018D1E069002820DA25F020051DE0D8F860
:10460000180000EB800006EB40003038C8F81800B6
:104610002046E1688847064601F0FCFA0028EED102
:10462000012F0AD02E2E08D12046E16888477F1C32
:104630000646022F45F02005C4DBA069002803DAF6
:10464000404245F00105A061E80701D025F01005C2
:10465000A6B1A6F14100192802D8203645F400651C
:104660004A463146204625604D46FBF799FD60B12C
:10467000012807D0ED1D25F0070000E007E000F15C
:10468000080978E705F1040975E730467AE7206AFA
:10469000BDE8F09FDE3C00000FB400B58DB010A95E
:1046A000099000910B904FF0FF300A9000200C9081
:1046B000064878440690064878446A4607900F9961
:1046C00009A800F05DFB0DB05DF814FBEB060000DF
:1046D000030700002DE9FF5F1D464FF0FF3B9146A9
:1046E0004FF000085F46D5E90146A96901987F1C93
:1046F0008847296A824688470028F6D1BAF1FF3FE9
:104700000CD0002E24F4C06419DD600614D5BAF173
:104710002B0F09D0BAF12D0F0ED103E0584604B08B
:10472000BDE8F09F44F48064A96901987F1C884724
:10473000761E8246002E02DDBAF1300F03D0B9F1A9
:10474000000F26D032E0A969761E01987F1C44F440
:1047500000748847002E824605DDBAF1780F06D036
:10476000BAF1580F03D0B9F1000F10D01EE0B9F123
:10477000000F02D0B9F1100F18D1A969761E019867
:104780007F1C24F4007488478246102002E0082031
:1047900000E00A20814609E0A96908FB0908761EA5
:1047A00001987F1C44F4007488478246002E05DD82
:1047B0004946504600F0D0FA0028EDDAE969019840
:1047C0008847A00502D46FF00100A8E7E00725D1D3
:1047D000600613D5600502D5C8F1000000E0404630
:1047E00029680A1D2A600968220501D5087015E0AC
:1047F000220701D5088011E008600FE02868011D3C
:1048000029600068210502D580F8008006E02107B4
:1048100002D5A0F8008001E0C0F8008038467EE7AD
:1048200070477047704770472DE9F0470D4699462D
:104830009246044600F124080168880604D5E06920
:1048400021F01001216000E00120A84201DD471B9A
:1048500000E00027A1697A1902EB0900081AA0619B
:104860002078C00602D42046AFF30080002608E07E
:10487000D4E901211AF806009047206A401C761CF2
:1048800020624E45F4DB2078C0060AD52046AFF3FF
:10489000008006E0D4E9012130209047206A401CC6
:1048A0002062381EA7F10107F4DC07E0D4E90121FA
:1048B00018F805009047206A401C2062281EA5F1C8
:1048C0000105F3DC2046AFF300802078000602D516
:1048D0000220BDE8F0870120FBE770472DE9FF4F7C
:1048E0000C461E464FF0FF378BB0D2E90001DDF8D1
:1048F00060800A908A46C1F30A5505B93D460021F9
:1049000008464FF00000BAF1000F00F4400005DA4D
:1049100000EB80004FF4400101EA50004FEA90594B
:10492000B9F1010F00DDB9460A9850EA4A000ED0ED
:1049300044F61050A5F2FF3545432F14B8F1000F8F
:104940001ED07542291E1EDDC9F100021CE0B8F11F
:10495000010F4FF0000001D0302103E0F24305E0E9
:104960002154401CB042FBDB304600220021215480
:104970000B99C1F80880C1E900200FB0BDE8F08FA5
:10498000BD1B6D1CDEE74A4600DA694206A800F04E
:1049900073FC06AB93E8070003AB83E807005046BF
:1049A0000A9900F05BFD8DE80700A0F500501F3864
:1049B00000900398002D0ADD42F21F014A46084488
:1049C000002303A90390684600F0C4FF09E0A0F5A6
:1049D00000504A461F38002303A90390684600F0A0
:1049E000CEFF8DE807000004000C03D04FF0FF302D
:1049F000410800E01046B8F1000F03D000220092F9
:104A000015461EE0751E05D400F0EEF930326255F1
:104A10006D1EF9D5B3460122084302D000227F1C47
:104A200004E02078302801D100227F1E002A099757
:104A300084D01DE0112D07DA00F0D6F9303262552E
:104A40006D1C50EA0102F5D1084302D00098C8B1AC
:104A50000EE00021681E05E0235C625C6354225472
:104A6000401E491C8142F7DBAB46A81B401E099043
:104A7000002004F80B000B98099AC0F80880C0E9E0
:104A8000002B7AE711264FF0000857E72DE9F04F89
:104A900088460446D21D22F0070191B0D1E90001F9
:104AA000CDE90A0101F0A2F802460B98C00F01D02F
:104AB0002D2007E02068810701D52B2002E020216E
:104AC00001EAC000032A099001D0072A05DB03464A
:104AD0004146204600F0D6F90BE12078800601D54A
:104AE000E06900E00620B8F1650F814606D0B8F114
:104AF000660F18D0B8F1670F70D131E00020B9F11E
:104B0000110F009001DB112301E009F101030AAA52
:104B100001A90CA8FFF7E2FEDDE90C70002609F1FF
:104B20000105834647E001204B4600904FF00047C7
:104B30000AAA01A90CA8FFF7D1FEDDE90DB00C9976
:104B40005D46002610B909F101000D18B9EB05000A
:104B500003D4C0F1FF3609F10105A5EB09002BE0F4
:104B6000B9F1010F01DA4FF001090020B9F1110F7D
:104B70000090484601DD112300E003460AAA01A97E
:104B80000CA8FFF7ABFEDDE90C704D46002683460E
:104B9000207800070AD4AB4500DA5D4601A8012D54
:104BA00004DD411911F8011C302907D04F4502DA04
:104BB00017F1040F04DA012082460FE06D1EEEE7C4
:104BC000002F02DCED1B3E4403E0781CA84200DD10
:104BD0007D1CB81B00F1010A4FF000472078000748
:104BE00003D4AA4501DB4FF0FF3A0021B7F1004F93
:104BF0000DF143088DF8431024D002202B23002F01
:104C000001DA7F422D230A21021EA0F1010000DCFF
:104C10005FB197FBF1FC97FBF1F201FB1C7C17469F
:104C20000CF1300C08F801CDEEE7A8F1010003709B
:104C30002188090501D5452100E06521A0F1010881
:104C400000F8011C09980FA9A1EB0807FF1D00B18E
:104C50000120411901EBEA70A1693844081A401E8D
:104C6000A0612078C00602D42046AFF300800998E6
:104C700028B1D4E901219047206A401C20622078A5
:104C8000C00622D52046AFF300801EE0002E04DBD4
:104C9000B34502DD01A8805D00E03020D4E90121A8
:104CA0009047206A401C2062761CAAF101005FEA4E
:104CB000000A0AD100F094F8C0680168405CD4E9A9
:104CC00001219047206A401C2062281EA5F10105A1
:104CD000DCDC07E0D4E9012118F8010B9047206AD9
:104CE000401C2062381EA7F10107F3DC2046AFF319
:104CF0000080032011B041E601694A1C0261087876
:104D0000704700B58FB0CDE901310021059105490B
:104D10007944CDE9031011466846FFF721FC0FB036
:104D200000BD0000E5FFFFFF0A6802F8010B0A6002
:104D300070470000074B70B50D467B44FFF7E1FF5D
:104D40000446284600F00AFB10B14FF0FF3070BD5A
:104D5000204670BDAFD7FFFF3A2800D2303820F090
:104D60002002412A01D3A2F13700884201D34FF03B
:104D7000FF3070470268114413780160184670478D
:104D8000D160054979445161044979441162002197
:104D90001161114600F0B6B8EDFFFFFFE50000001D
:104DA000426842B1016811F8013B23B1521EC0E9CB
:104DB0000012184670470121C160881E7047426882
:104DC0005AB1C368016843B983688B4205D0491E54
:104DD000521CC0E90012002070474FF0FF307047AE
:104DE00000487047301A002030B5B0F10A024FEA8F
:104DF000900E71F100034EEA817EB0EB0E0061EB84
:104E000091014FEA101E4EEA017E10EB0E0041EBBD
:104E100011114FEA102E4EEA016E10EB0E0041EB1D
:104E200011214FEA104E4EEA014E10EB0E0041EBFD
:104E30001141401841F100014FEAD00040EA4170B1
:104E40004FEAD10110EB80054FEA810444EA9074E7
:104E500044EB01046D1944EB0404521BA3414FF0D1
:104E6000000348BF0A3200D530BD401C41F10001AB
:104E700030BD10B5044600F09FFA0068005D00F0F8
:104E8000010010BD2DE9F0411F46044603260168CC
:104E9000072A01F4006004DB08B116A505E016A599
:104EA00003E008B115A500E015A521F01000206071
:104EB000A069C01EA0610FB1401EA0612046AFF3E3
:104EC00000804FB1D4E9012138469047206A401C48
:104ED0002062C01C206206E0206AFAE7D4E90121C2
:104EE00015F8010B9047761EF8D22046AFF30080EC
:104EF000BDE8F0814E414E006E616E00494E4600A5
:104F0000696E66002DE9F34F4FF0000A0C465646D5
:104F10008DB001200C9001F10C000B9062690B9890
:104F200001219047051E2DD0252D2CD0216A8847C0
:104F3000C0B162690B9801219047216A8847002817
:104F4000F7D16269411E0B98904700E0761CA16979
:104F50000D988847216A88470028F7D1E1690D98A4
:104F60008847DBE7A1690D988847A842074601D129
:104F7000761CD3E7E1690D9888477F1C02D1BAF10E
:104F8000000F6FD06BE162690B9800273D463946F0
:104F900090472A2804D162690B9801219047012586
:104FA000DFF8D08262690B9801219047A0F13001AF
:104FB0000A290AD24745E5DC07EB870100EB4107E8
:104FC000303FDFD445F01005ECE7E90601D46FF07F
:104FD00000476C280AD04C2814D0682815D06A28BD
:104FE0000DD074281CD07A281AD01DE062690B9865
:104FF000012190476C2802D045F0040514E045F0EB
:1050000002050DE045F020050AE062690B980121D8
:105010009047682802D045F0080505E045F4006592
:1050200062690B9801219047C4E9015765283DD07A
:1050300019DC58287AD00CDC452837D004DC252828
:1050400026D041289ED131E046282FD0472899D13B
:105050002CE05B2877D0612828D063287CD0642896
:1050600023D15AE0F6E06F2848D008DC66281DD02E
:1050700067281BD0692821D06E2816D127E0702818
:1050800045D0732868D0752847D078280DD14DE0D9
:10509000A1690D988847252805463FF469AFE16965
:1050A0000D9888476D1C3FF46AAFD8E00D992346F0
:1050B0006A466FF00100AFF30080C5E045F04000A4
:1050C00023464FF000026060A80736D43EE0E807B0
:1050D0007FF447AF2068011D21600068290501D5D4
:1050E00006701BE7290701D5068017E7A90703D536
:1050F000F117C0E9006111E706600FE745F04000D5
:1051000023464FF008026060A80716D41EE040F660
:105110000E0125EA0100606016E045F040002346DC
:105120004FF00A026060A80707D40FE045F0400086
:105130006060A80708D5234610220D996FF0010082
:10514000AFF3008080E007E0102223460D996FF056
:105150000100FFF7BFFA77E04FF0000963284F46E0
:10516000C8464B46CB4602D05B2806D038E0E8065E
:1051700001D40120A060012732E06269D4F80CB0AC
:105180000B98012190475E2807D14FF0010949464D
:105190006269D4F80CB00B989047216939B90021A5
:1051A0000A4603AB43F82120491C0829FADBD8B38F
:1051B000216949B308F1010862690B980121904700
:1051C0005D28F4D1B9F1000F09D0002003A951F8EE
:1051D0002020D24341F82020401C0828F7DB03ABF5
:1051E0002069002820794FEA40701ED05B46224695
:1051F000CDF80080CDE901970D9900286FF00100EE
:1052000020DAAFF300801FE0C11703AA00EBD161E1
:105210004B1121F01F0102EB8302411A1368012098
:10522000884003431360C7E719E00D992246002820
:105230006FF00100009702DAAFF3008004E0AFF3F3
:10524000008001E0AFF3008000280ADA401C06D19C
:105250000C9820B14FF0FF300FB0BDE8F08F5046F2
:10526000FAE7E90701D10AF1010A064400200C908F
:1052700054E60000CCCCCC0C2DE9F0478146164614
:105280008AB0354878440DC88DE80D00324878441E
:10529000801C03AC0DC884E80D0041F69B30084427
:1052A000372190FBF1F290FBF1F5A5F1800501FBB0
:1052B00012041B3C02D56442012000E00020DFF80C
:1052C00098A080460027FA44AAF1BE0A0EE0E00743
:1052D0000AD03246684607EB470101230AEB8101F9
:1052E00000F04DFB8DE8070064107F1C002CEED110
:1052F000194F7F44AE3F19E0E80715D007EB0410C3
:105300000DF1180A90E80E008AE80E00C068F0421D
:1053100001D1981908903246012306A903A800F08C
:105320002EFB03AB83E807006D10641C002DE3D156
:105330004FF0010332466946B8F1000F03A802D0CE
:1053400000F008FB01E000F01AFBC9E90001C9F810
:1053500008200AB0BDE8F08758300000007B00F05C
:105360008000704700487047101A00207546FFF70C
:10537000F9FFAE4605006946534620F00700854612
:1053800018B020B5FDF756F9BDE820404FF00006F3
:105390004FF000074FF000084FF0000B21F007011D
:1053A000AC46ACE8C009ACE8C009ACE8C009ACE860
:1053B000C0098D467047000010B5FFF711FD001DB4
:1053C00010BD00BF8D08000010B50446AFF300808B
:1053D0002046BDE81040FAF706BF00004FF0013C40
:1053E00050F8042B51F8043B9A4221D1A2EB0C0354
:1053F000934313EACC1317D150F8042B51F8043B14
:105400009A4215D1A2EB0C03934313EACC130BD1B0
:1054100050F8042B51F8043B9A4209D1A2EB0C033B
:10542000934313EACC13DBD04FF00000704700BF6A
:10543000D01A01BAB1FA81F101F0180122FA01F093
:10544000CB40C1F12001DBB2C0B2C01A2CFA01F38B
:10545000D11A914311EAC311E6D170475FEA400CBB
:1054600008BF91F0000F4FEA8C234FEAC12243EAB4
:1054700051514FEA1C5018BF00F5F0404FEA300080
:1054800018BF41F000415FEA6C5C00F02980BCF17C
:10549000FF3F08BF40F080407047130C06BF120466
:1054A0004FF0100C4FF0000C130E04BF12020CF161
:1054B000080C130F04BF12010CF1040C930F04BF6E
:1054C00092000CF1020CD30F04BF52000CF1010C3E
:1054D00011464FF00002A0F11F00A0EB0C00704736
:1054E00011F0004F08BF704731F000413FF4D5AFD5
:1054F0000B0C06BF09044FF0100C4FF0000C0B0E04
:1055000004BF09020CF1080C0B0F04BF09010CF1D8
:10551000040C8B0F04BF89000CF1020CCB0F04BFED
:1055200049000CF1010CCCF12003A0EB0C0022FA95
:1055300003F302FA0CF241EA030100F101007047A3
:1055400020F07F4C80EA030023F07F47ACEB070399
:1055500003F57C5300F0004003F1FF032DE980497F
:105560004FEA154B09B44FEA144325EA0B4E24EADF
:1055700003480FF2042606EB132749083E785FEA3A
:10558000320203FB0667C7F5000707FB06F64FEA82
:1055900054374FEAD64606F1020607FB066CCCF1FB
:1055A000005C4FEA1C472CEA074C07FB06F40CFB97
:1055B00006F504EB15464FEA961634BF00204FF06F
:1055C00000404FEAD13706FB07FC4FEA1C4C0CFBAE
:1055D0000BF7D21B03FB0CF761EB07010CFB0EF77B
:1055E000B0EB074072EB17420CFB08F734BFA2EB9D
:1055F0000742B2EB074261EB17414FEA0C444FEA16
:10560000910706FB07FC4FEA1C4C0CFB0BF7B0EBB9
:10561000C74072EB573203FB0CF734BFA2EBC74213
:10562000B2EBC74261EB57310CFB0EF7B0EBC70092
:1056300072EB57720CFB08F734BFA2EBC702B2EB58
:10564000C70261EB5771039F4FEA816141EA9211F2
:1056500004EBCC044FEAD1374FEA826206FB07FC29
:1056600042EA90124FEA80604FEA1C4C0CFB0BF7A9
:10567000D21B03FB0CF761EB07010CFB0EF7B0EB41
:10568000074072EB17420CFB08F734BFA2EB07424E
:10569000B2EB074261EB17414FEA8C554FEA910795
:1056A00004EB9C2406FB07FC4FEA1C4C0CFB0BF79D
:1056B000B0EBC74072EB573203FB0CF734BFA2EBE1
:1056C000C742B2EBC74261EB57310CFB0EF7B0EBB0
:1056D000C70072EB57720CFB08F734BFA2EBC7028E
:1056E000B2EBC70261EB577115EB4C254FEA8161B4
:1056F00041EA92114FEA82624FEAD13742EA9012B0
:1057000006FB07FC44F100044FEA80604FEA1C4CA2
:105710000CFB0BF7D21B03FB0CF761EB07010CFB37
:105720000EF7B0EB074072EB17420CFB08F734BFE3
:10573000A2EB0742B2EB074261EB174115EB1C15D8
:105740004FEA813141EA92414FEA823242EA904285
:105750004FEA80304FEA0C7644F1000448EA0343F4
:105760004EEA0B484FF0000EB2EB080C71EB03074A
:1057700024BF624639464EEB0E0E4FF0000B001868
:10578000524149414BEB0B0BB2EB080C71EB030799
:105790007BF1000B24BF624639464EEB0E0E4FF0F4
:1057A000000B0018524149414BEB0B0BB2EB080CBC
:1057B00071EB03077BF1000B24BF624639464EEBC9
:1057C0000E0E51EA020718BF46F0010616EB0E76E0
:1057D00055F1000254F1000103D5BDE88901BDE88F
:1057E0000088BDE88901BDE80048B619524141EB87
:1057F0000101A3F10103704780807F7E7D7C7B7A6D
:105800007978777676757473727171706F6E6E6D6C
:105810006C6C6B6A6A696868676666656464636312
:1058200062616160605F5F5E5E5D5D5C5C5B5B5A98
:105830005A59595858575756565555555454535305
:1058400052525251515050504F4F4F4E4E4D4D4D60
:105850004C4C4C4B4B4B4A4A4A49494948484847AB
:1058600047474746464645454544444444434343E9
:105870004342424242414141002B9C4630D4770092
:105880002BD01CB54FEA370703B44FF010004FF090
:105890001001BAF1000F06D0BCF1000FDCBF40F0E0
:1058A000080040F008014FF000000FBCBDE81040B8
:1058B0000BF1010BBBF1010F08BF5FEA170722BF15
:1058C00012F1010211F101014FF0004143F1000317
:1058D00000F0004043EA00007047F9D35708D0E7D2
:1058E00046EA064613F1400F4FEA16461FDD13F154
:1058F000200FDFBF16430A46002120335B42BED093
:10590000C3F1200746EA064602FA07F74FEA1646B1
:1059100046EA0706C3F1200722FA03F201FA07F765
:1059200021FA03F14FF0000342EA0702A7E746EA33
:10593000020646EA06464FEA164646EA0106BCBF9C
:1059400046EA0646360C4FF000034FF000024FF0D7
:10595000000194E72DE9804C9A46934670B491E893
:10596000380007C831EA400C48BF34EA430C03D57D
:10597000FFF7E6FDFFF780FFF0BCBDE8008C2DE9E6
:10598000804C9A46934670B491E8380007C810F0EE
:10599000804F08BF13F0804F03D100F005F8FFF7E8
:1059A0006BFFF0BCBDE8008C20F07F4780EA03006D
:1059B00023F07F4C07EB0C03A3F57C5300F0004071
:1059C000A3F1FE0392F0000F00F0B38095F0000FFA
:1059D00000F077802DE901494FEA11404FEA144663
:1059E00021EA004800FB06FC24EA064708FB06F60D
:1059F00007FB08F800FB07F718EB06484CEB164CC2
:105A00004FEA124B18EB07484FEA15464CEB17408C
:105A100022EA0B4E0BFB06FC25EA06470EFB06F6B8
:105A200007FB0EFE0BFB07F71EEB064E4CEB164C6E
:105A30004FF000061EEB074E4CEB174B18EB0B0814
:105A400040F1000018EB0E0B58EB000840F100008D
:105A50008F1A4FF000013CBFC943661B14BFB5EB62
:105A6000040C00213CBFC943F61B4FEA17444EEA21
:105A70008E0E27EA04454FEA1C4704FB07622CEA16
:105A8000074C05FB07F70CFB05F604FB0CFC16EBBB
:105A9000074642EB174216EB0C4642EB1C421BEB4F
:105AA000060658EB0202414146EA9E0601D5BDE8D2
:105AB0000189B619524141EB0101A3F10103BDE88F
:105AC00001894FEA14454FEA114724EA054621EAC5
:105AD000074C05FB07F406FB07F70CFB06F105FB7B
